:020000040800F2
:1000000010070020B50100088914000881140008B9
:1000100085140008F1020008691F000800000000B4
:100020000000000000000000000000005D1F00084C
:10003000F502000800000000391E0008611F0008DA
:10004000CF010008CF010008CF010008CF01000850
:10005000CF010008CF010008CF010008CF01000840
:10006000CF010008CF010008CF010008CF01000830
:10007000CF010008CF010008CF010008CF01000820
:10008000CF010008CF010008CF010008CF01000810
:10009000CF010008CF010008CF010008CF01000800
:1000A000CF010008CF010008CF010008CF010008F0
:1000B000CF010008CF010008CF010008CF010008E0
:1000C000CF010008CF010008CF010008CF010008D0
:1000D000CF010008CF010008CF010008CF010008C0
:1000E000CF010008CF010008CF01000800F002F89E
:1000F00000F050F814A696E8000CB244B344DA4578
:1001000001D100F047F8BAE80F000FA696E83000DA
:10011000A5EB040504EB0607AAEB0704A7F101070A
:100120004FEA15154FEA3414A4F10104AC4201D38F
:1001300000F030F813F0010F18BFFB1A43F0010371
:1001400000F001F8DBE718471C2000003C2000000D
:10015000103A24BF78C878C1FAD8520724BF30C8F3
:1001600030C144BF04680C60704700007047000055
:100170000023002400250026103A28BF78C1FBD8B0
:10018000520728BF30C148BF0B6070471FB51FBD65
:1001900010B510BD00F071F81146FFF7F7FF01F040
:1001A000E5FE00F08FF803B4FFF7F2FF03BC00F0A8
:1001B00097F800000948804709480047FEE7FEE736
:1001C000FEE7FEE7FEE7FEE7FEE7FEE7FEE7FEE707
:1001D00004480549054A064B70470000651F0008A2
:1001E000ED0000081001002010070020100300207F
:1001F000100300204FF0013C50F8042B51F8043B51
:100200009A4221D1A2EB0C03934313EACC1317D1EA
:1002100050F8042B51F8043B9A4215D1A2EB0C0381
:10022000934313EACC130BD150F8042B51F8043B41
:100230009A4209D1A2EB0C03934313EACC13DBD00F
:100240004FF00000704700BFD01A01BAB1FA81F137
:1002500001F0180122FA01F0CB40DBB2C0B2C01AA3
:10026000C1F120012CFA01F3D11A914311EAC31113
:10027000E6D17047704770477047754600F02CF81C
:10028000AE4605006946534620F00700854618B083
:1002900020B5FFF79DFFBDE820404FF000064FF06E
:1002A00000074FF000084FF0000BAC46ACE8C00967
:1002B000ACE8C009ACE8C009ACE8C00921F007010E
:1002C0008D46704710B50446AFF300802046BDE868
:1002D0001040FFF768BF0000004870473000002062
:1002E00001491820ABBEFEE726000200704700005F
:1002F000FEE7000070470000B0B5044600F026F9A4
:10030000054640F22000C2F200000078611C18BFD0
:10031000044400BF00F01AF9401BA042FAD3B0BD5C
:100320002DE9F04F82B00E68002E00F0FD8041F202
:100330000042C4F20102042340F2004E904208BF82
:1003400003234FF6FF7CC4F2010E00930024012327
:10035000C1F2100C4FF0000A4FF000094BE000BF53
:1003600041F20002C4F20102009F904208BF02273E
:1003700004F00C030F229A402BEA020207FA03F35F
:100380004FEA9A051A4346F825204E6840F20C457C
:10039000F202DEF8082054BF22EA080242EA08020C
:1003A000C4F20105CEF808202A68B30254BF22EA3D
:1003B000080242EA08022A60B303DEF8042054BFB0
:1003C00022EA080242EA0802F303CEF80420DEF82B
:1003D00000204FF0010354BF22EA080242EA08025B
:1003E000CEF800200E680AF1010A36FA0AF204F18A
:1003F000040400F0998003FA0AFB16EA0B08F1D016
:100400004E68664512DC122E56D8DFE806F0350B32
:100410004D495555555555555555555555555545B0
:10042000510000BFD1F80C9046E000BF4FF6FF72BC
:10043000C1F2210296420FDC0022C1F21102964263
:100440001AD00022C1F21202964215D00022C1F247
:100450002102964210D02FE00022C1F222029642E1
:100460000AD00022C1F23102964205D00022C1F228
:100470003202964220D100BF8A684AB1012A14BFD5
:10048000C0F814B0C0F810B04FF0080914E000BF75
:100490004FF0040910E000BFCA6802F104090BE044
:1004A0004FF0000908E000BFCA6802F1080903E044
:1004B000CA6802F10C0900BF02462646B8F5807FE3
:1004C00024BF0432203E17680F25B54027EA0505F2
:1004D00009FA06F635431560CA79D2067FF582AF70
:1004E00041F21803C4F202031A68AEF57E7642F0B8
:1004F00001021A601A6802F001020192019A2AF0C0
:10050000030256F802B040F60002C4F20102904223
:1005100008D040F60042C4F2010290427FF420AFBE
:10052000012725E7002723E702B0BDE8F08F000090
:10053000C26802EA0103914341EA03410161704745
:10054000002A08BF090401617047000040F208104A
:10055000C2F200000068704740F2200040F208112B
:10056000C2F20000C2F2000100780A68104408607C
:100570007047000080B542F20000C4F2020001683A
:1005800041F010010160032000F07AF80F2000F024
:1005900005F800F027F8002080BD000070B540F29B
:1005A0002006C2F2000640F228013278C2F20001B1
:1005B0004FF47A730968B3FBF2F20446B1FBF2F12F
:1005C000084600F047FF0F2C4FF0010508D838B956
:1005D0004FF0FF3021460022002500F025F874601E
:1005E000284670BD82B041F21800C4F202000168D2
:1005F000022241F001010160016801F00101019155
:100600000199416841F080514160406800F080509C
:10061000009000980420C4F20100016862F31A619E
:10062000016002B07047000010B54EF60C5CCEF2CF
:10063000000CDCF80030C3F3022E8EF00704042C0B
:1006400028BF0424BEF103034FF0FF3E0EFA04F46A
:1006500038BF0023A14399400EFA03F39A43114394
:1006600000F00F0200F160430901043A03F564430E
:100670006244002848BF02F10C03197010BD00004D
:100680004EF60C51CEF200010A684FF6FF031A40F5
:1006900060F30A2242F0806040F0FD70086070470D
:1006A000002804BF012070472DE9F04381B042F2D9
:1006B0000008C4F202080446D8F800000D4600F015
:1006C000070081420CD9D8F8000020F00700284329
:1006D000C8F80000D8F8000000F00700A8426CD16C
:1006E000206841F204098107C4F2020917D54107C5
:1006F00005D5D9F8001041F4E061C9F800100107F0
:1007000005D5D9F8001041F46051C9F80010D9F8A6
:100710000010A26821F0F0011143C9F80010C007D1
:1007200042D1D8F8000000F0070085420CD2D8F87A
:10073000000020F007002843C8F80000D8F80000A7
:1007400000F00700A84238D12068410707D5D9F842
:100750000010E26821F4E0611143C9F800100007BD
:1007600008D5D9F80000216920F4605040EAC100A2
:10077000C9F80000D9F8002002F00C00082841F266
:100780000020C0F27A004DD142F25413C2F38341EB
:10079000C0F60003595CD20338D440F60010C0F212
:1007A0003D0048433EE000BF606859F8041C022841
:1007B00008D0012826D1890306D4012001B0BDE864
:1007C000F08300BF8901F8D5D9F8001021F00301AA
:1007D0000843C9F80000FFF7B9FE064641F2883722
:1007E000D9F80000616800F00C00B0EB810F98D0E0
:1007F000FFF7ACFE801BB842F2D9032001B0BDE880
:10080000F08300BF8907D8D5DEE700BFD9F8002004
:1008100042F25213C2F34042C0F600039A5C4843CE
:10082000B0FBF2F0D9F8001042F24212C1F303110A
:10083000C0F60002515C40F2280220FA01F140F2B9
:100840002400C2F200000068C2F200021160FFF74B
:10085000A5FE002001B0BDE8F0830000002804BF21
:10086000012070472DE9F04182B00446007841F242
:100870000006C007C4F202060CD0706800F00C003D
:10088000042840F081803068800303D56068002828
:1008900000F04681207880071BD5706810F00C0F9F
:1008A00009D0706800F00C00082840F0878070685C
:1008B000C00300F183803068800703D520690128D8
:1008C00040F02E813068616920F0F80040EAC100F4
:1008D00030602078000713D4207840072CD4E569D5
:1008E000002D00F01881706800F00C00082840F01E
:1008F000A780012D40F00481012002B0BDE8F08105
:10090000A069002800F084800020C4F24220012168
:10091000C0F88014FFF71AFE054600BF706A800712
:1009200000F1B280FFF712FE401B0228F6D9032027
:1009300002B0BDE8F08100BFF0695FEAC00808D4EA
:10094000F06940F08050F061F06900F08050009054
:10095000009847F20007C4F200073868C00549D480
:10096000386840F480703860FFF7F0FD054600BF3E
:100970003868C0053ED4FFF7E9FD401B6428F7D96D
:10098000032002B0BDE8F081706800F00C00082878
:1009900003D17068C0033FF576AF61683068002905
:1009A00000F00C81B1F5A02F00F00081B1F5803F7F
:1009B00040F01A8140F480301CE100BF206900281B
:1009C00040F20000C4F2422000F088800121016062
:1009D000FFF7BCFD054600BF306880073FF572AFEA
:1009E000FFF7B4FD401B0228F6D9032002B0BDE892
:1009F000F08100BFE168306A002900F09D80052980
:100A000000F09280012940F0AF8040F00100B1E099
:100A10000020C4F242200021C0F88014FFF796FDA8
:100A2000054600BF706A80077FF556AFFFF78EFD61
:100A3000401B0228F6D9032002B0BDE8F08100BFB8
:100A40000027C4F2422700203866FFF77FFD022D01
:100A500005460DD13068800140F1DE80FFF776FD5C
:100A6000401B02284FF00300F4D902B0BDE8F0812A
:100A7000306880014FD5FFF769FD401B02284FF019
:100A80000300F5D9F1E700BF40F22800C2F20000F0
:100A9000006844F6D351C1F26201A0FB0101480A8B
:100AA000019000BF00BF0198411E002801913FF452
:100AB00013AF00BF0198411E002801913FF40CAF15
:100AC00000BF0198411E002801913FF405AF00BF0F
:100AD0000198411E00280191E4D1FDE6002101604A
:100AE000FFF734FD054600BF306880077FF5F1AEA3
:100AF000FFF72CFD401B02284FF00300F4D9B4E7A8
:100B00007068216A00F480328A4209D1616A00F477
:100B10007010884204D1002002B0BDE8F08100BF0F
:100B2000012002B0BDE8F08140F004003062306A7C
:100B300040F001001EE000BF20F001003062306A8A
:100B400020F004003062FFF701FD054641F28837CE
:100B5000306A800720D5FFF7F9FC401BB8424FF000
:100B60000300F5D981E700BF20F001003062306A50
:100B700020F004003062FFF7E9FC054641F28837B7
:100B8000306A800708D4FFF7E1FC401BB842F7D970
:100B9000032002B0BDE8F081B8F1000F3FF59FAE31
:100BA000F06920F08050F06199E600BF40F48020A9
:100BB0003060306840F480301CE000BF20F48030AA
:100BC0003060306820F480203060FFF7BFFC0546BD
:100BD000306880037FF55EAEFFF7B8FC401B6428E9
:100BE0004FF00300F4D940E720F4803030603068E3
:100BF00020F480203060FFF7A9FC054630688003B0
:100C00003FF548AEFFF7A2FC401B6428F6D903204D
:100C100002B0BDE8F08100BF206AB0F5803F05D189
:100C20007168A26821F40031114371607168626AD1
:100C300021F4741111430843706001203866FFF7F6
:100C400085FC0446306880013FF565AFFFF77EFC08
:100C5000001B02284FF00300F4D906E770B528B155
:100C6000416A29B100210161142106E0012070BD13
:100C70004168B1F5827F02D01C210022425000263B
:100C8000866290F8511029B980F85060054600F04E
:100C900039F82846022180F8511090E82E0002F41D
:100CA00082720C6803F4044324F040040C601A447C
:100CB00005F4006305691A4405F0020345691A4406
:100CC00005F001038569C4691A4405F400731A44E8
:100CD00004F03803046A1A4404F08003846A1A4357
:100CE00004F400531A430A60042202EA15424A60DF
:100CF000CA6922F40062CA610121466580F8511078
:100D0000304670BD70B586B040F60044C4F20104B0
:100D10000068A4F55441002688420596CDE9036693
:100D2000029601D006B070BD41F21800C4F2020074
:100D3000416802AD41F480414160416801F4804165
:100D400001910199016841F008010160006829469C
:100D500000F00800019001984FF42040029002201A
:100D60000390032005902046FFF7DAFA4FF4804005
:100D7000CDE90206204629460496FFF7D1FA06B0CF
:100D800070BD00002DE9F04182B0044690F851009A
:100D9000012819D160681D4617460E46B0F5827FBE
:100DA00001D1A068A0B1FFF7D1FB8046002E4FF023
:100DB000010018BF002F03D102B0BDE8F08100BFD1
:100DC00094F85000012811D1022002B0BDE8F08152
:100DD000042084F851002046314632463B460095B7
:100DE00000F0CEF902B0BDE8F08100BF012084F828
:100DF00050000420002184F851006165A663A78794
:100E0000E7872163A186E186A2682068B2F5004FDA
:100E10002164616438D00168490640D5E168E08FFB
:100E2000002944D000287BD0681C0CD11BE000BFF7
:100E3000C068A16B21F8020BA163E08F0138E08745
:100E4000E08F00286CD020688168C907F0D1FFF7D7
:100E50007DFBA0EB0800A842F2D342E0FFF776FB4F
:100E6000E08F00285CD020688168C907F6D0C06890
:100E7000A16B21F8020BA163E08F0138E087E08FBE
:100E80000028F0D14CE000BF016821F04001016072
:100E9000016821F48041016001684906BED40168FF
:100EA00041F040010160E168E08F0029BAD1B8B398
:100EB000681C0CD124E000BF007BA16B0870A06B04
:100EC0000130A063E08F0138E087E08F40B32068F5
:100ED0008168C907F0D1FFF739FBA0EB0800A842F1
:100EE000F3D3012084F85100002084F8500003203F
:100EF00002B0BDE8F08100BFFFF728FBE08F78B1BA
:100F000020688168C907F7D0007BA16B0870A06BCF
:100F10000130A063E08F0138E087E08F0028EFD137
:100F20006068B0F5827F11D1A068B0F5004F02D0A3
:100F3000B0F5806F0AD12168B0F5806F0A6822F0A1
:100F400040020A6002D12046012101E020468021B2
:100F500000222B46CDF8008000F070FF28B1606DB4
:100F600040F02000606520206065012084F8510079
:100F7000002084F85000606D002818BF012002B0E6
:100F8000BDE8F0812DE9F04182B01D4616460F46BE
:100F90000446FFF7DBFA94F8511001290ED1804680
:100FA000002F4FF0010018BF002E03D102B0BDE8A2
:100FB000F08100BF94F85000012803D1022002B054
:100FC000BDE8F081012084F850000320002184F85E
:100FD000510061652763A686E686A163A187E18744
:100FE000A0682164B0F5004F2068616407D10168F2
:100FF00021F040010160016841F480410160016815
:10100000490603D4016841F0400101606168731E24
:10101000E268B1FA81F1B3FA83F349095B09B2F5E9
:10102000006F41EA030139D131B137F8021BC160C9
:101030002763E08E0138E086E08E002870D0681CBF
:101040000BD11AE0216B31F8022BC2602163E08ED4
:101050000138E086E08E002862D020688168890728
:10106000F0D4FFF773FAA0EB0800A842F2D338E0FF
:10107000FFF76CFAE08E002852D02068816889075B
:10108000F6D5216B31F8022BC2602163E08E013866
:10109000E086E08E0028F0D142E000BF39B1397817
:1010A0000173206B01302063E08E0138E086E08E12
:1010B000B0B3681C0BD123E0216B09780173206B5E
:1010C00001302063E08E0138E086E08E40B3206876
:1010D00081688907F0D4FFF739FAA0EB0800A8422D
:1010E000F3D3012084F85100002084F8500003203D
:1010F00002B0BDE8F08100BFFFF728FAE08E78B1BA
:10110000206881688907F7D5216B09780173206B06
:1011100001302063E08E0138E086E08E0028EFD1B8
:101120002046022101222B46CDF8008000F086FEE9
:1011300040B92046802100222B46CDF8008000F0E7
:101140007DFE28B1606D40F0200060652020606564
:10115000A06838B9002001902068C16801918068BA
:1011600001900198012084F85100002084F850007B
:10117000606D002818BF012002B0BDE8F0810000BA
:101180002DE9F04383B01E4615460F460446FFF78F
:10119000DDF994F851108146012909D1002F4FF053
:1011A000010018BF002D0FD103B0BDE8F08300BFD0
:1011B0006068B0F5827F0DD104294FF00200F3D1B1
:1011C000A1680029EAD0EFE7002EEDD094F8500096
:1011D000012803D1022003B0BDE8F083012084F888
:1011E000500094F85100002104281CBF052084F809
:1011F00051006165A563E687A6872763E6862068B8
:10120000A686216461640168490603D4016841F03F
:10121000400101606168731EE268B1FA81F1B3FABE
:1012200083F3DDF8288049095B09B2F5006F41EAD4
:10123000030165D131B137F8021BC1602763E08E2D
:101240000138E086012518F1010032D102E000BF2B
:10125000FFF77CF9E08E18B9E08F002800F0B88025
:101260002068816889070CD5E18E51B1012D08D124
:10127000216B002531F8022BC2602163E18E013918
:10128000E1868168C907E3D0E18F0029E0D0C0681A
:10129000A16B012521F8020BA163E08F0138E087E3
:1012A000D6E700BFFFF752F9A0EB0900404580F0F8
:1012B000AF80E08E18B9E08F002800F089802068A8
:1012C000816889070CD5E18E51B1012D08D1216BC0
:1012D000002531F8022BC2602163E18E0139E186DD
:1012E0008168C907DED0E18F0029DBD0C068A16B1F
:1012F000012521F8020BA163E08F0138E087D1E7D7
:1013000039B139780173206B01302063E08E0138E8
:10131000E086012518F1010032D101E0FFF716F94E
:10132000E08E10B9E08F002852D0206881688907CC
:101330000ED5E18E61B1012D0AD1216B002509780E
:101340000173216B206801312163E18E0139E1864F
:101350008168C907E2D0E18F0029DFD0C068A16BA6
:1013600001250870A06B0130A063E08F0138E08791
:10137000D4E700BFFFF7EAF8A0EB0900404547D2E9
:10138000E08E08B9E08F18B32068816889070ED510
:10139000E18E61B1012D0AD1216B0025097801731D
:1013A000216B206801312163E18E0139E18681687A
:1013B000C907DFD0E18F0029DCD0C068A16B01250F
:1013C0000870A06B0130A063E08F0138E087D1E79F
:1013D0002046022101224346CDF8009000F02EFD68
:1013E00040B92046802100224346CDF8009000F00D
:1013F00025FDB8B1606D40F020006065202060657B
:10140000002084F85000012003B0BDE8F08300BF45
:10141000012084F85100002084F85000032003B01C
:10142000BDE8F083A06838B9002002902068C16848
:101430000291806802900298012084F851000020F7
:1014400084F85000606D002818BF012003B0BDE88B
:10145000F0830000411E0020B0EB116F1CBF012083
:1014600070474EF21002CEF2000251604EF6235148
:10147000CEF20001F0230B700721906011607047DD
:10148000FEE70000FEE70000FEE7000070B584B054
:1014900040F60045C4F20105A5F5806420464FF4EE
:1014A00080710022FFF74CF8002000F0CBF92020DB
:1014B000ADF8020028464FF480510022FFF740F8B3
:1014C00040F2B006C2F200060DF1020130460222DF
:1014D0004FF47A73FFF756FD28464FF480510122EE
:1014E000FFF72EF82120ADF8040028464FF4805174
:1014F0000022FFF725F801A9304602224FF47A7343
:10150000FFF740FD28464FF480510122FFF718F8FD
:101510002220ADF8060028464FF480510022FFF744
:101520000FF80DF10601304602224FF47A73FFF7EF
:1015300029FD28464FF480510122FFF701F840F2BF
:101540002330ADF8080028464FF480510022FEF702
:10155000F7FF02A9304602224FF47A73FFF712FD1B
:1015600028464FF480510122FEF7EAFF2420ADF80F
:101570000A0028464FF480510022FEF7E1FF0DF1EA
:101580000A01304602224FF47A73FFF7FBFC28462B
:101590004FF480510122FEF7D3FF2520ADF80C0057
:1015A00028464FF480510022FEF7CAFF03A93046B7
:1015B00002224FF47A73FFF7E5FC28464FF480517E
:1015C0000122FEF7BDFF40F62660ADF80E0028466A
:1015D0004FF480510022FEF7B3FF0DF10E013046AB
:1015E00002224FF47A73FFF7CDFC28464FF4805166
:1015F0000122FEF7A5FF20464FF480710122FEF77D
:101600009FFF04B070BD00002DE9F04385B040F6A7
:101610000045C4F20105A5F580680C460746404622
:101620004FF4807100224FF00009FEF789FF272058
:10163000ADF8070028464FF480510022FEF780FFE6
:1016400040F2B006C2F200060DF107013046022258
:101650004FF47A73FFF796FC28464FF4805101222D
:10166000FEF76EFF25208DF8090028464FF48051C3
:1016700000228DF80A40FEF763FF0DF109013046A4
:1016800002224FF47A73FFF77DFC28464FF4805115
:101690000122FEF755FF4FF49170ADF80B0028467C
:1016A0004FF480510022FEF74BFF0DF10B01304645
:1016B00002224FF47A73FFF765FC28464FF48051FD
:1016C0000122FEF73DFF2A208DF80D0028464FF439
:1016D00080510022FEF734FF0DF10D01304601224A
:1016E0006423FFF74FFC3046394605224FF47A73E6
:1016F000FFF748FC28464FF480510122FEF720FFF7
:1017000042F23100ADF80E0028464FF4805100221D
:10171000FEF716FF0DF10E01304602224FF47A73E8
:10172000FFF730FC28464FF480510122FEF708FFF6
:1017300028464FF4805100228DF811908DF81090BA
:10174000FEF7FEFE0DF11101304601226423FFF782
:1017500019FC04A9304601226423FFF713FB284635
:101760004FF480510122FEF7EBFE9DF8100020217E
:1017700040F003008DF812108DF8130028464FF446
:1017800080510022FEF7DCFE0DF1120130460222EC
:101790004FF47A73FFF7F6FB28464FF4805101228D
:1017A000FEF7CEFE40464FF480710122FEF7C8FEE0
:1017B00005B0BDE8F083000070B582B040F600448B
:1017C000C4F20104064620464FF480510022FEF781
:1017D000B7FE40F2B0056120C2F200058DF80600A8
:1017E0000DF10601284601226423FFF7CBFB2846B2
:1017F000314620224FF47A73FFF7C4FA20464FF4A3
:1018000080510122FEF79CFE0120FEF775FDE220CB
:101810008DF806008DF8070020464FF48051002215
:10182000FEF78EFE0DF10701284601226423FFF723
:10183000A9FB20464FF480510122FEF781FE02B041
:1018400070BD0000B0B586B040F600441728C4F261
:10185000010403D0072811D1272001E041F23710FD
:10186000ADF8100020464FF480510022FEF768FECC
:1018700040F2B000C2F2000004A97DE26FF018004F
:101880006FF03D028DF814004FF0E7318DF80C2019
:101890004FF0C2328DF804004FF4026004910292BE
:1018A0000091ADF8160020464FF480510022FEF75B
:1018B00047FE40F2B005C2F200050DF116012846C0
:1018C00002224FF47A73FFF75DFB20464FF48051FC
:1018D0000122FEF735FE43F62170ADF816002046D2
:1018E0004FF480510022FEF72BFE0DF11601284621
:1018F00002224FF47A73FFF745FB20464FF48051E4
:101900000122FEF71DFE40F22230ADF816002046FF
:101910004FF480510022FEF713FE0DF11601284608
:1019200002224FF47A73FFF72DFB20464FF48051CB
:101930000122FEF705FE40F22330ADF816002046E6
:101940004FF480510022FEF7FBFD0DF116012846F1
:1019500002224FF47A73FFF715FB20464FF48051B3
:101960000122FEF7EDFD4FF44970ADF81600204658
:101970004FF480510022FEF7E3FD0DF116012846D9
:1019800002224FF47A73FFF7FDFA20464FF480519C
:101990000122FEF7D5FD40F22520ADF816002046C5
:1019A0004FF480510022FEF7CBFD0DF116012846C1
:1019B00002224FF47A73FFF7E5FA20464FF4805184
:1019C0000122FEF7BDFD40F62660ADF81600204668
:1019D0004FF480510022FEF7B3FD0DF116012846A9
:1019E00002224FF47A73FFF7CDFA20464FF480516C
:1019F0000122FEF7A5FD2720ADF8160020464FF482
:101A000080510022FEF79CFD0DF1160128460222AE
:101A10004FF47A73FFF7B6FA20464FF48051012253
:101A2000FEF78EFD2820ADF8160020464FF48051B9
:101A30000022FEF785FD0DF11601284602224FF423
:101A40007A73FFF79FFA20464FF480510122FEF788
:101A500077FD2920ADF8160020464FF48051002272
:101A6000FEF76EFD0DF11601284602224FF47A733F
:101A7000FFF788FA20464FF480510122FEF760FDFF
:101A80002A208DF8160020464FF480510022FEF7E0
:101A900057FD0DF11601284601226423FFF772FA63
:101AA00004A9284605224FF47A73FFF76BFA204603
:101AB0004FF480510122FEF743FD2B208DF81600D4
:101AC00020464FF480510022FEF73AFD0DF1160139
:101AD000284601226423FFF755FA02A92846052269
:101AE0004FF47A73FFF74EFA20464FF480510122EB
:101AF000FEF726FD4CF22C30ADF8160020464FF4D0
:101B000080510022FEF71CFD0DF11601284602222D
:101B10004FF47A73FFF736FA20464FF480510122D2
:101B2000FEF70EFD4CF22D40ADF8160020464FF4A6
:101B300080510022FEF704FD0DF116012846022215
:101B40004FF47A73FFF71EFA20464FF480510122BA
:101B5000FEF7F6FC4CF22E50ADF8160020464FF47E
:101B600080510022FEF7ECFC0DF1160128460222FE
:101B70004FF47A73FFF706FA20464FF480510122A2
:101B8000FEF7DEFC4CF22F60ADF8160020464FF455
:101B900080510022FEF7D4FC0DF1160128460222E6
:101BA0004FF47A73FFF7EEF920464FF4805101228B
:101BB000FEF7C6FC30208DF8160020464FF4805109
:101BC0000022FEF7BDFC0DF1160128460122642318
:101BD000FFF7D8F96946284605224FF47A73FFF7D4
:101BE000D1F920464FF480510122FEF7A9FC3120A3
:101BF000ADF8160020464FF480510022FEF7A0FCFD
:101C00000DF11601284602224FF47A73FFF7BAF954
:101C100020464FF480510122FEF792FC3220ADF8AD
:101C2000160020464FF480510022FEF789FC0DF18A
:101C30001601284602224FF47A73FFF7A3F92046D3
:101C40004FF480510122FEF77BFC3320ADF81600E3
:101C500020464FF480510022FEF772FC0DF1160170
:101C6000284602224FF47A73FFF78CF920464FF48E
:101C700080510122FEF764FC3420ADF816002046A6
:101C80004FF480510022FEF75BFC0DF1160128464F
:101C900002224FF47A73FFF775F920464FF4805112
:101CA0000122FEF74DFC3520ADF8160020464FF41A
:101CB00080510022FEF744FC0DF116012846022255
:101CC0004FF47A73FFF75EF920464FF480510122FA
:101CD000FEF736FC3620ADF8160020464FF4805152
:101CE0000022FEF72DFC0DF11601284602224FF4CA
:101CF0007A73FFF747F920464FF480510122FEF72F
:101D00001FFC41F23710ADF8160020464FF4805109
:101D10000022FEF715FC0DF11601284602224FF4B1
:101D20007A73FFF72FF920464FF480510122FEF716
:101D300007FC3C20ADF8160020464FF480510022ED
:101D4000FEF7FEFB0DF11601284602224FF47A73CE
:101D5000FFF718F920464FF480510122FEF7F0FBFF
:101D60003D20ADF8160020464FF480510022FEF7CA
:101D7000E7FB0DF11601284602224FF47A73FFF7B4
:101D800001F920464FF480510122FEF7D9FB06B03D
:101D9000B0BD0000F0B581B040F600440646C4F284
:101DA000010407208DF80100002520464FF48051E2
:101DB00000228DF80050FEF7C3FB40F2B007C2F2DC
:101DC00000070DF10101384601226423FFF7DAF81C
:101DD0006946384601226423FEF7D4FF20464FF4BB
:101DE00080510122FEF7ACFB9DF8000041061FD593
:101DF000C0F34200B0421BD144F22700ADF802000C
:101E000020464FF480510022FEF79AFB40F2B000CA
:101E1000C2F200000DF1020102224FF47A73FFF7C3
:101E2000B1F820464FF4805101220125FEF788FBCE
:101E3000284601B0F0BD0000704700002DE9F043D6
:101E400081B0089C984615460E468146FEF77EFBFB
:101E5000201A00EB0804FEF779FB40F22801C2F2D9
:101E600000010968C1F3CB3161430091D9F800103A
:101E70008A683240921BB2FA82F2520995423DD0F2
:101E8000074618F1010031D0FEF760FBC01BA042ED
:101E900038D2009800990028A1F101010091D9F8E9
:101EA0000010896808BF044601EA0600801BB0FAEA
:101EB00080F040098542E7D120E000BF88683040CB
:101EC000801BB0FA80F04009854217D08868304006
:101ED000801BB0FA80F0400985420FD088683040FE
:101EE000801BB0FA80F04009854207D088683040F6
:101EF000801BB0FA80F040098542DFD1002001B09C
:101F0000BDE8F083D9E900014268B1F5827F22F093
:101F1000E00242600BD1D9F80810B1F5004F02D0B1
:101F2000B1F5806F03D1016821F040010160D9F85B
:101F30002810B1F5005F07D1016821F4005101605C
:101F4000016841F400510160012089F8510000202E
:101F500089F85000032001B0BDE8F083704700000D
:101F6000FEF7FABA70470000FEE7000090B0FEF7F7
:101F700001FB00240120CDE90B44CDE90944069082
:101F80000A904FF4E0104FF4803102250F9006A81C
:101F9000CDE90714CDE90D51FEF760FC20B1EFF358
:101FA000108072B6FEE700BF0F20CDE901054FF4A7
:101FB0008060CDE9040401A802210394FEF770FBC0
:101FC00020B1EFF3108072B6FEE700BF002741F2A8
:101FD0001800CDE90877CDE90677C4F20200016860
:101FE00040F6000441F0200101600168C4F20104E0
:101FF00001F02001019101990168002241F00401E2
:102000000160016840F2031601F004010191019999
:10201000016841F008010160006840F2031100F01E
:102020000800019001982046FEF78AFA04F58065C1
:10203000284641F20401002241F20408FEF780FA2A
:10204000069606AE4FF001094FF0020A20463146CF
:10205000CDE90797CDF824A0FEF762F9284631466E
:10206000CDE90689CDE9087AFEF75AF940F29000E9
:10207000A4F55041C2F2000040F8201F4FF48271D5
:102080004FF400721023C0E901170A21C0E9037759
:10209000C0E90572C0E90737C0E90977C162FEF7F8
:1020A000DDFD28B1EFF3108072B600BFFEE700BF80
:1020B000FFF7ECF940F20006C2F200063046642158
:1020C000FFF7A2FA40F29007C2F200070AE000BF51
:1020D000204601210022FEF733FA20460221002289
:1020E000FEF72EFA0020FFF755FE0128F0D1384602
:1020F000FFF762FB06F10C013846FEF77BF838B9B2
:10210000204601210122FEF71BFA6420FEF7F4F8B5
:1021100006F114013846FEF76DF838B92046022161
:102120000122FEF70DFA6420FEF7E6F8711D38462D
:10213000FEF760F80028CBD128460421FEF7F8F915
:10214000C6E70000000000000000010203040607CB
:102150000809010202030405060708090A0B0C0D11
:102160000E0F101088210008000000203000000031
:1021700050010008B821000830000020E0060000EF
:102180007001000800000000EEDDCCBBAA546F67B0
:10219000676C6500464F5257415244004241434BE1
:1021A00057415244000000000100000010000000F0
:0821B00000127A00000000009B
:04000005080000ED02
:00000001FF
